:0800000021C0FECFFDCFFCCFB3
:10000800FBCFFACFF9CFF8CFF7CFF6CFF5CFF4CFB4
:10001800F3CFF2CFF1CFF0CFEFCFEECFEDCFECCFE4
:10002800EBCF3F065B4F666D7D077F6F777C395E50
:1000380079710100010002003A000000F894EE27EF
:10004800ECBBF1E0FBBFEBBFE5BF8DE0A2E0BB2757
:10005800ED938A95E9F780E092E0A0E6ED930197A9
:10006800E9F7ECE3F0E085919591009761F0A591AF
:10007800B59105901590BF01F00105900D9201977B
:10008800E1F7FB01F0CFEFE5EDBFE2E0EEBFC0EE38
:10009800D0E00FC01A931A2FE12FE066E7B983E08A
:1000A8008A95F1F7369A349BFECF349AE5B11991C7
:1000B8000895E0E0EABBEBBBEFEFE7BBE0E0E8BBAD
:1000C800EFEFE4BBE0E0E5BBE1BBEFEFE2BBE0E074
:1000D800E3BFE2BFECBFEFBDEEBDEDBDECBDE7BDDC
:1000E800E6BDEBBDEABDE9BDE8BDE2BDE5BDE4BDE9
:1000F800E3BDE9BFE5BFE4BFEAB9E0E8E8B9E0E697
:10010800E7B9E1E8E6B9E0E1E0BFE0E0EDB9E6BF74
:10011800A0E0C0DF4E2EE8948099689422F821FE72
:1001280002C022FE01C004C0E1E02E26A4E146D0B0
:1001380021FC02C022FC01C002C0A4E13FD020FE85
:100148001EC03ED0A9E0B0E060D0DF01E5E0F0E0FD
:1001580074D0E05E5E2E3ED0A52DB0E0E4E6F0E07F
:100168003BD0E1E0E5BB36D0A52DBB27E4E6F0E0C7
:1001780069D0BF0138D0DB01AE1BBF0B0DC020D04A
:100188005E2E28D0EAE2F0E0E491E095E8BBE1E0F9
:10019800E5BB20D0A52DB0E0EAE0F0E01DD0E2E01C
:1001A800E5BB18D020D0E65DFF4FE491E095E8BBB1
:1001B800E4E0E5BB22FA21F8ABCFFFCFB0E05EC0A8
:1001C800E42DF0E0A4EFB1E020D0DF01EFEFF0E0A4
:1001D80034D00895A7E0F2CF30D0E65DFF4FE49128
:1001E800E095E8BB0895A52DBB27EAE0F0E02AD00A
:1001F8000895F195E195F0400895FA9FF02DEB9F51
:10020800F00DEA9FE02DF10D08952AD0F6DF0EF4E7
:10021800F0DF08950024112490E1AA0FBB1F001CF1
:10022800111C0E1A1F0A18F40E0E1F1E01C0A16021
:100238009A9599F7FD01D001089512D0EBDF0EF4DD
:10024800D8DF0895E894B7FF04C0B195A195B040F0
:100258006894F7FDCEDFDEDFFD010EF4CADF0895F6
:10026800E894F7FF02C0C5DF6894B7FF06C0B195F0
:10027800A195B04000F8039400FA0895109639F05B
:10028800A8958AEF90E00197F1F71197C9F70895BB
:00000001FF
