:0C0000001CC0FECFFDCFFCCFFBCFFACF21
:10000C00F9CFF8CFF7CFF6CFF5CFF4CFF3CFF2CFC0
:10001C00F1CFF0CFEFCFEECFEDCFECCFEBCF3F0664
:10002C005B4F666D7C077F6F777F393F7971F894F2
:10003C00EE27ECBBF1E0FBBFEBBFE5BF8DE0A2E030
:10004C00BB27ED938A95E9F780E092E0A0E6ED936B
:10005C000197E9F7EFE5EDBFE2E0EEBFC0EED0E0CF
:10006C0000C0EFEFEABBEBBBE7BBE0E0E8BBE4BBF7
:10007C00EFEFE5BBE0E0E1BBEFEFE2BBE0E0E3BFBD
:10008C00E2BFECBFEFBDEEBDEDBDECBDE7BDE6BD27
:10009C00EBBDEABDE9BDE8BDE2BDE5BDE4BDE3BD38
:1000AC00E9BFE5BFE4BFEAB9E0E8E8B9E0E0E0BFEA
:1000BC00E6B9EDB9E6BFE0B3EF705E2EE3B3EF70D7
:1000CC004E2EE52DF0E0E65DFF4F049008BAE42DCE
:1000DC00F0E0E65DFF4FE491E095EBBBECCFFFCF9A
:00000001FF
